:0A0CF50000010202030304040505D8
:100A3800E4F513F512F511F510C203C200C202C2A3
:100A480001120D8E7E0D7F008E238F24752B0D7560
:100A58002C1275210D75221C75290D752A4A752DC4
:100A68000D752E6AEE54C07003020B3975140075AB
:100A780015808E168F17C3748C9FFF740D9ECF241C
:100A880002CF3400FEE48F0F8E0EF50DF50CF50B3A
:100A9800F50AF509F508AF0FAE0EAD0DAC0CAB0BB2
:100AA800AA0AA909A808C3120FCA5033E517250BCB
:100AB800F582E516350AF583E0FFE515250BF58285
:100AC800E514350AF583EFF0E50B2401F50BE43561
:100AD8000AF50AE43509F509E43508F50880B7850B
:100AE800142385152474002480FF740D34FFFEC37D
:100AF800E52C9FF52CE52B9EF52BC3E5269FF526C7
:100B0800E5259EF525C3E5289FF528E5279EF527C9
:100B1800C3E5229FF522E5219EF521C3E52A9FF52D
:100B28002AE5299EF529C3E52E9FF52EE52D9EF58C
:100B38002DD2E843D82090E668E04409F090E65CBE
:100B4800E0443DF0D2AF90E680E020E105D2041207
:100B58000E7A90E680E054F7F0538EF8C203120B39
:100B6800FF300105120800C2013003F2120BFD50DC
:100B7800EDC203120F2820001690E682E030E70449
:100B8800E020E1EF90E682E030E604E020E0E412C5
:070B98000EA9120FF380C744
:100F910090E60AE054F0600B90E50DE030E402D3F6
:050FA10022C322D3224F
:1008000090E6B9E070030208BF14700302093C24AB
:10081000FE70030209BF24FB70030208B9147003C1
:100820000208B31470030208A71470030208AD2471
:10083000056003020A24120FF54003020A3090E615
:10084000BBE024FE602714603824FD60111460278B
:1008500024067050E52390E6B3F0E524803C120FA7
:1008600091503EE52B90E6B3F0E52C802DE52590E8
:10087000E6B3F0E5268023E52790E6B3F0E528808F
:100880001990E6BAE0FF120ED5AA06A9077B01EA85
:10089000494B600DEE90E6B3F0EF90E6B4F0020A3B
:1008A00030020A1F020A1F120FB8020A30120FE7A5
:1008B000020A30120E4B020A30120FA6020A301240
:1008C0000FF74003020A3090E6B8E0247F60151469
:1008D000601924027063A200E43325E0FFA202E461
:1008E000334F8041E490E740F0803F90E6BCE05415
:1008F0007EFF7E00E0D394807C0040047D01800276
:100900007D00EC4EFEED4F24F5F582740C3EF58330
:10091000E493FF3395E0FEEF24A1FFEE34E68F82EF
:10092000F583E0540190E740F0E4A3F090E68AF00C
:1009300090E68B7402F0020A30020A1F120FF9408F
:1009400003020A3090E6B8E024FE60162402600339
:10095000020A3090E6BAE0B40105C200020A300291
:100960000A1F90E6BAE0705590E6BCE0547EFF7E28
:1009700000E0D394807C0040047D0180027D00EC87
:100980004EFEED4F24F5F582740C3EF583E493FFA3
:100990003395E0FEEF24A1FFEE34E68F82F583E08D
:1009A00054FEF090E6BCE05480131313541FFFE094
:1009B000540F2F90E683F0E04420F08073806012A3
:1009C0000FFB506C90E6B8E024FE601A2402704FD2
:1009D00090E6BAE0B40104D200805590E6BAE0B4E3
:1009E0000202804C803990E6BCE0547EFF7E00E03D
:1009F000D394807C0040047D0180027D00EC4EFE9B
:100A0000ED4F24F5F582740C3EF583E493FF3395A6
:100A1000E0FEEF24A1FFEE34E68F82F583800D9097
:100A2000E6A08008120F00500790E6A0E04401F015
:070A300090E6A0E04480F015
:010A3700229C
:03003300020FEFCA
:040FEF0053D8EF32B2
:100D8E0090E600E054E74410F090E60174E3F09032
:100D9E00E60274E8F000000090E60374F9F000003B
:100DAE000090E670E04480F090E6137402F00000CC
:100DBE000090E615F000000090E61274A0F000001E
:100DCE000090E61474E0F000000090E6047480F0E9
:100DDE000000007402F00000007404F000000074C3
:100DEE0006F00000007408F0000000E4F0000000BF
:100DFE0090E618F00000007410F000000090E61A63
:070E0E00744CF0000000220B
:010BFF0022D3
:020BFD00D32201
:020FF300D32207
:020FF500D32205
:100E4B0090E680E030E70F90E6247402F00000009B
:100E5B00E490E625800DE490E624F000000090E697
:0F0E6B00257440F000000090E6BAE0F51BD3229A
:100FA60090E740E51BF0E490E68AF090E68B04F0CB
:020FB600D32244
:080FE70090E6BAE0F51AD322EE
:100FB80090E740E51AF0E490E68AF090E68B04F0BA
:020FC800D32232
:020FF700D32203
:020FF900D32201
:020FFB00D322FF
:100F000090E6B9E0242F600D04701990E604E0FF2C
:100F1000430780800890E604E0FF53077F0000004D
:070F2000EFF08002D322C3B1
:010F270022A7
:100BE500C0E0C083C082D2015391EF90E65D7401ED
:080BF500F0D082D083D0E03281
:100F6500C0E0C083C0825391EF90E65D7404F0D079
:060F750082D083D0E032BF
:100F7B00C0E0C083C0825391EF90E65D7402F0D065
:060F8B0082D083D0E032A9
:100E1500C0E0C083C082852925852A26852682854E
:100E25002583A37402F085212785222885288285BC
:100E35002783A37407F05391EF90E65D7410F0D00B
:060E450082D083D0E032F0
:100F4D00C0E0C083C082D2035391EF90E65D740878
:080F5D00F0D082D083D0E03215
:100CB800C0E0C083C08290E680E030E7208521252F
:100CC800852226852682852583A37402F085292717
:100CD800852A28852882852783A37407F05391EFF6
:0D0CE80090E65D7420F0D082D083D0E03221
:010CFF0032C2
:010FFD0032C1
:010FFE0032C0
:010FFF0032BF
:0110000032BD
:0110010032BC
:0110020032BB
:0110030032BA
:0110040032B9
:0110050032B8
:0110060032B7
:0110070032B6
:0110080032B5
:0110090032B4
:01100A0032B3
:01100B0032B2
:01100C0032B1
:01100D0032B0
:01100E0032AF
:01100F0032AE
:0110100032AD
:0110110032AC
:0110120032AB
:0110130032AA
:0110140032A9
:0110150032A8
:0110160032A7
:0110170032A6
:0110180032A5
:0110190032A4
:01101A0032A3
:01101B0032A2
:01101C0032A1
:01101D0032A0
:01101E00329F
:01101F00329E
:100D00001201000200000040B404031000000102C0
:100D100000010A06000200000040010009022E0046
:100D200001010040320904000002FF000000070535
:100D30000202000200070586020002000705040205
:100D400000020007058802000200090220000101DC
:100D50000040320904000002FF0000000705020203
:100D60004000000705860240000004030904100348
:100D700043007900700072006500730073000E0379
:0E0D800045005A002D005500530042000000AF
:100EA90090E682E030E004E020E60B90E682E03054
:100EB900E119E030E71590E680E04401F07F147E07
:0C0EC90000120B9F90E680E054FEF02227
:100E7A0030040990E680E0440AF0800790E680E0BA
:100E8A004408F07FDC7E05120B9F90E65D74FFF04C
:0F0E9A0090E65FF05391EF90E680E054F7F0227E
:020ED500A9076B
:100ED700AE2DAF2E8F828E83A3E064037017AD0112
:100EE70019ED7001228F828E83E07C002FFDEC3E8E
:080EF700FEAF0580DFE4FEFF01
:010EFF0022D0
:100F280090E682E044C0F090E681F043870100003B
:040F38000000002293
:100B9F008E188F1990E600E054187012E519240191
:100BAF00FFE43518C313F518EF13F519801590E608
:100BBF0000E05418FFBF100BE51925E0F519E518F3
:100BCF0033F518E5191519AE18700215184E600592
:060BDF00120F3C80EE2223
:100F3C007400F58690FDA57C05A3E582458370F9C8
:010F4C002282
:03004300020C00AC
:03005300020C009C
:100C0000020BE500020F7B00020F6500020F4D0092
:100C1000020E1500020CB800020CFF00020FFD00CE
:100C2000020FFE00020FFF00021000000210010080
:100C3000021002000210030002100400021005005E
:100C400002100600020FFD0002100700021008004B
:100C50000210090002100A0002100B0002100C0022
:100C600002100D00020FFD00020FFD00020FFD003B
:100C700002100E0002100F000210100002101100EE
:100C800002101200021013000210140002101500CE
:100C900002101600021017000210180002101900AE
:100CA00002101A0002101B0002101C0002101D008E
:080CB00002101E0002101F00DB
:03000000020FDB11
:0C0FDB00787FE4F6D8FD75812E020A38FC
:100FCA00EB9FF5F0EA9E42F0E99D42F0E89C45F07D
:010FDA0022F4
:00000001FF
